{
  "contractName": "Sale",
  "abi": [
    {
      "constant": true,
      "inputs": [],
      "name": "creator",
      "outputs": [
        {
          "name": "",
          "type": "address"
        }
      ],
      "payable": false,
      "stateMutability": "view",
      "type": "function"
    },
    {
      "constant": true,
      "inputs": [
        {
          "name": "",
          "type": "address"
        }
      ],
      "name": "heldTimeline",
      "outputs": [
        {
          "name": "",
          "type": "uint256"
        }
      ],
      "payable": false,
      "stateMutability": "view",
      "type": "function"
    },
    {
      "constant": true,
      "inputs": [],
      "name": "endBlock",
      "outputs": [
        {
          "name": "",
          "type": "uint256"
        }
      ],
      "payable": false,
      "stateMutability": "view",
      "type": "function"
    },
    {
      "constant": true,
      "inputs": [],
      "name": "isFunding",
      "outputs": [
        {
          "name": "",
          "type": "bool"
        }
      ],
      "payable": false,
      "stateMutability": "view",
      "type": "function"
    },
    {
      "constant": true,
      "inputs": [],
      "name": "ETHWallet",
      "outputs": [
        {
          "name": "",
          "type": "address"
        }
      ],
      "payable": false,
      "stateMutability": "view",
      "type": "function"
    },
    {
      "constant": true,
      "inputs": [],
      "name": "maxMintable",
      "outputs": [
        {
          "name": "",
          "type": "uint256"
        }
      ],
      "payable": false,
      "stateMutability": "view",
      "type": "function"
    },
    {
      "constant": true,
      "inputs": [],
      "name": "exchangeRate",
      "outputs": [
        {
          "name": "",
          "type": "uint256"
        }
      ],
      "payable": false,
      "stateMutability": "view",
      "type": "function"
    },
    {
      "constant": true,
      "inputs": [],
      "name": "startBlock",
      "outputs": [
        {
          "name": "",
          "type": "uint256"
        }
      ],
      "payable": false,
      "stateMutability": "view",
      "type": "function"
    },
    {
      "constant": true,
      "inputs": [],
      "name": "totalMinted",
      "outputs": [
        {
          "name": "",
          "type": "uint256"
        }
      ],
      "payable": false,
      "stateMutability": "view",
      "type": "function"
    },
    {
      "constant": true,
      "inputs": [],
      "name": "heldTotal",
      "outputs": [
        {
          "name": "",
          "type": "uint256"
        }
      ],
      "payable": false,
      "stateMutability": "view",
      "type": "function"
    },
    {
      "constant": true,
      "inputs": [],
      "name": "Token",
      "outputs": [
        {
          "name": "",
          "type": "address"
        }
      ],
      "payable": false,
      "stateMutability": "view",
      "type": "function"
    },
    {
      "constant": true,
      "inputs": [
        {
          "name": "",
          "type": "address"
        }
      ],
      "name": "heldTokens",
      "outputs": [
        {
          "name": "",
          "type": "uint256"
        }
      ],
      "payable": false,
      "stateMutability": "view",
      "type": "function"
    },
    {
      "inputs": [
        {
          "name": "_wallet",
          "type": "address"
        }
      ],
      "payable": false,
      "stateMutability": "nonpayable",
      "type": "constructor"
    },
    {
      "payable": true,
      "stateMutability": "payable",
      "type": "fallback"
    },
    {
      "anonymous": false,
      "inputs": [
        {
          "indexed": false,
          "name": "from",
          "type": "address"
        },
        {
          "indexed": false,
          "name": "amount",
          "type": "uint256"
        }
      ],
      "name": "Contribution",
      "type": "event"
    },
    {
      "anonymous": false,
      "inputs": [
        {
          "indexed": false,
          "name": "from",
          "type": "address"
        },
        {
          "indexed": false,
          "name": "amount",
          "type": "uint256"
        }
      ],
      "name": "ReleaseTokens",
      "type": "event"
    },
    {
      "constant": false,
      "inputs": [
        {
          "name": "token_address",
          "type": "address"
        },
        {
          "name": "end_block",
          "type": "uint256"
        }
      ],
      "name": "setup",
      "outputs": [],
      "payable": false,
      "stateMutability": "nonpayable",
      "type": "function"
    },
    {
      "constant": false,
      "inputs": [],
      "name": "closeSale",
      "outputs": [],
      "payable": false,
      "stateMutability": "nonpayable",
      "type": "function"
    },
    {
      "constant": false,
      "inputs": [],
      "name": "contribute",
      "outputs": [],
      "payable": true,
      "stateMutability": "payable",
      "type": "function"
    },
    {
      "constant": false,
      "inputs": [
        {
          "name": "rate",
          "type": "uint256"
        }
      ],
      "name": "updateRate",
      "outputs": [],
      "payable": false,
      "stateMutability": "nonpayable",
      "type": "function"
    },
    {
      "constant": false,
      "inputs": [
        {
          "name": "_creator",
          "type": "address"
        }
      ],
      "name": "changeCreator",
      "outputs": [],
      "payable": false,
      "stateMutability": "nonpayable",
      "type": "function"
    },
    {
      "constant": false,
      "inputs": [
        {
          "name": "_allowed",
          "type": "bool"
        }
      ],
      "name": "changeTransferStats",
      "outputs": [],
      "payable": false,
      "stateMutability": "nonpayable",
      "type": "function"
    },
    {
      "constant": true,
      "inputs": [
        {
          "name": "_address",
          "type": "address"
        }
      ],
      "name": "getHeldCoin",
      "outputs": [
        {
          "name": "",
          "type": "uint256"
        }
      ],
      "payable": false,
      "stateMutability": "view",
      "type": "function"
    },
    {
      "constant": false,
      "inputs": [],
      "name": "releaseHeldCoins",
      "outputs": [],
      "payable": false,
      "stateMutability": "nonpayable",
      "type": "function"
    }
  ],
  "bytecode": "0x608060405234801561001057600080fd5b5060405160208061138a83398101806040528101908080519060200190929190505050436003819055506a034f086f3b33b68400000060008190555080600660006101000a81548173ffffffffffffffffffffffffffffffffffffffff021916908373ffffffffffffffffffffffffffffffffffffffff1602179055506001600560006101000a81548160ff02191690831515021790555033600860016101000a81548173ffffffffffffffffffffffffffffffffffffffff021916908373ffffffffffffffffffffffffffffffffffffffff16021790555061010061010f640100000000026401000000009004565b6102586004819055505061024b565b61012a336103e861019a640100000000026401000000009004565b610161734f70dc5da5acf5e71905c3a8473a6d8a7e7ba4c569152d02c7e14af680000061019a640100000000026401000000009004565b61019873393c82c7ae55b48775f4eccd2523450d291f241869152d02c7e14af680000061019a640100000000026401000000009004565b565b80600960008473ffffffffffffffffffffffffffffffffffffffff1673ffffffffffffffffffffffffffffffffffffffff1681526020019081526020016000208190555060004301600a60008473ffffffffffffffffffffffffffffffffffffffff1673ffffffffffffffffffffffffffffffffffffffff16815260200190815260200160002081905550806007600082825401925050819055506007546001600082825401925050819055505050565b6111308061025a6000396000f300608060405260043610610112576000357c0100000000000000000000000000000000000000000000000000000000900463ffffffff16806302d05d3f14610358578063065fe24f146103af578063083c63231461040657806313b53153146104315780631a30ec13146104605780632154dc39146104b75780633ba0b9a9146104e257806348cd4cb11461050d57806369ea1771146105385780636ce5b3cf1461056557806374580e2f1461057c578063a2309ff8146105bf578063a4e6a231146105ea578063b3097a0814610641578063b602a9171461066c578063c24126761461069b578063d7bb99ba146106f2578063de0099a3146106fc578063ee55efee14610753578063f46d19821461076a575b60008060003411151561012457600080fd5b600560009054906101000a900460ff16151561013f57600080fd5b600254431115151561015057600080fd5b6004543402915081600154019050600054811115151561016f57600080fd5b80600160008282540192505081905550600660009054906101000a900473ffffffffffffffffffffffffffffffffffffffff1673ffffffffffffffffffffffffffffffffffffffff166108fc349081150290604051600060405180830381858888f193505050501580156101e7573d6000803e3d6000fd5b50600560019054906101000a900473ffffffffffffffffffffffffffffffffffffffff1673ffffffffffffffffffffffffffffffffffffffff166379c6506833846040518363ffffffff167c0100000000000000000000000000000000000000000000000000000000028152600401808373ffffffffffffffffffffffffffffffffffffffff1673ffffffffffffffffffffffffffffffffffffffff16815260200182815260200192505050602060405180830381600087803b1580156102ad57600080fd5b505af11580156102c1573d6000803e3d6000fd5b505050506040513d60208110156102d757600080fd5b8101908080519060200190929190505050507f4d154d4aae216bed6d0926db77c00df2b57c6b5ba4eee05775de20facede3a7b3383604051808373ffffffffffffffffffffffffffffffffffffffff1673ffffffffffffffffffffffffffffffffffffffff1681526020018281526020019250505060405180910390a15050005b34801561036457600080fd5b5061036d6107b7565b604051808273ffffffffffffffffffffffffffffffffffffffff1673ffffffffffffffffffffffffffffffffffffffff16815260200191505060405180910390f35b3480156103bb57600080fd5b506103f0600480360381019080803573ffffffffffffffffffffffffffffffffffffffff1690602001909291905050506107dd565b6040518082815260200191505060405180910390f35b34801561041257600080fd5b5061041b6107f5565b6040518082815260200191505060405180910390f35b34801561043d57600080fd5b506104466107fb565b604051808215151515815260200191505060405180910390f35b34801561046c57600080fd5b5061047561080e565b604051808273ffffffffffffffffffffffffffffffffffffffff1673ffffffffffffffffffffffffffffffffffffffff16815260200191505060405180910390f35b3480156104c357600080fd5b506104cc610834565b6040518082815260200191505060405180910390f35b3480156104ee57600080fd5b506104f761083a565b6040518082815260200191505060405180910390f35b34801561051957600080fd5b50610522610840565b6040518082815260200191505060405180910390f35b34801561054457600080fd5b5061056360048036038101908080359060200190929190505050610846565b005b34801561057157600080fd5b5061057a6108c7565b005b34801561058857600080fd5b506105bd600480360381019080803573ffffffffffffffffffffffffffffffffffffffff169060200190929190505050610b83565b005b3480156105cb57600080fd5b506105d4610c23565b6040518082815260200191505060405180910390f35b3480156105f657600080fd5b5061062b600480360381019080803573ffffffffffffffffffffffffffffffffffffffff169060200190929190505050610c29565b6040518082815260200191505060405180910390f35b34801561064d57600080fd5b50610656610c72565b6040518082815260200191505060405180910390f35b34801561067857600080fd5b50610699600480360381019080803515159060200190929190505050610c78565b005b3480156106a757600080fd5b506106b0610d84565b604051808273ffffffffffffffffffffffffffffffffffffffff1673ffffffffffffffffffffffffffffffffffffffff16815260200191505060405180910390f35b6106fa610daa565b005b34801561070857600080fd5b5061073d600480360381019080803573ffffffffffffffffffffffffffffffffffffffff169060200190929190505050610ff0565b6040518082815260200191505060405180910390f35b34801561075f57600080fd5b50610768611008565b005b34801561077657600080fd5b506107b5600480360381019080803573ffffffffffffffffffffffffffffffffffffffff16906020019092919080359060200190929190505050611081565b005b600860019054906101000a900473ffffffffffffffffffffffffffffffffffffffff1681565b600a6020528060005260406000206000915090505481565b60025481565b600560009054906101000a900460ff1681565b600660009054906101000a900473ffffffffffffffffffffffffffffffffffffffff1681565b60005481565b60045481565b60035481565b600860019054906101000a900473ffffffffffffffffffffffffffffffffffffffff1673ffffffffffffffffffffffffffffffffffffffff163373ffffffffffffffffffffffffffffffffffffffff161415156108a257600080fd5b600560009054906101000a900460ff1615156108bd57600080fd5b8060048190555050565b600080600960003373ffffffffffffffffffffffffffffffffffffffff1673ffffffffffffffffffffffffffffffffffffffff168152602001908152602001600020549150600a60003373ffffffffffffffffffffffffffffffffffffffff1673ffffffffffffffffffffffffffffffffffffffff168152602001908152602001600020549050600560009054906101000a900460ff1615151561096a57600080fd5b6000821015151561097a57600080fd5b80431015151561098957600080fd5b6000600960003373ffffffffffffffffffffffffffffffffffffffff1673ffffffffffffffffffffffffffffffffffffffff168152602001908152602001600020819055506000600a60003373ffffffffffffffffffffffffffffffffffffffff1673ffffffffffffffffffffffffffffffffffffffff16815260200190815260200160002081905550600560019054906101000a900473ffffffffffffffffffffffffffffffffffffffff1673ffffffffffffffffffffffffffffffffffffffff166379c6506833846040518363ffffffff167c0100000000000000000000000000000000000000000000000000000000028152600401808373ffffffffffffffffffffffffffffffffffffffff1673ffffffffffffffffffffffffffffffffffffffff16815260200182815260200192505050602060405180830381600087803b158015610ad857600080fd5b505af1158015610aec573d6000803e3d6000fd5b505050506040513d6020811015610b0257600080fd5b8101908080519060200190929190505050507fa739e4172366f5a78dcb29dc28f3b20e3071cfe83b0be85e9dc4365232eb6be93383604051808373ffffffffffffffffffffffffffffffffffffffff1673ffffffffffffffffffffffffffffffffffffffff1681526020018281526020019250505060405180910390a15050565b600860019054906101000a900473ffffffffffffffffffffffffffffffffffffffff1673ffffffffffffffffffffffffffffffffffffffff163373ffffffffffffffffffffffffffffffffffffffff16141515610bdf57600080fd5b80600860016101000a81548173ffffffffffffffffffffffffffffffffffffffff021916908373ffffffffffffffffffffffffffffffffffffffff16021790555050565b60015481565b6000600960008373ffffffffffffffffffffffffffffffffffffffff1673ffffffffffffffffffffffffffffffffffffffff168152602001908152602001600020549050919050565b60075481565b600860019054906101000a900473ffffffffffffffffffffffffffffffffffffffff1673ffffffffffffffffffffffffffffffffffffffff163373ffffffffffffffffffffffffffffffffffffffff16141515610cd457600080fd5b600560019054906101000a900473ffffffffffffffffffffffffffffffffffffffff1673ffffffffffffffffffffffffffffffffffffffff166309010e53826040518263ffffffff167c01000000000000000000000000000000000000000000000000000000000281526004018082151515158152602001915050600060405180830381600087803b158015610d6957600080fd5b505af1158015610d7d573d6000803e3d6000fd5b5050505050565b600560019054906101000a900473ffffffffffffffffffffffffffffffffffffffff1681565b600080600034111515610dbc57600080fd5b600560009054906101000a900460ff161515610dd757600080fd5b6002544311151515610de857600080fd5b60045434029150816001540190506000548111151515610e0757600080fd5b80600160008282540192505081905550600660009054906101000a900473ffffffffffffffffffffffffffffffffffffffff1673ffffffffffffffffffffffffffffffffffffffff166108fc349081150290604051600060405180830381858888f19350505050158015610e7f573d6000803e3d6000fd5b50600560019054906101000a900473ffffffffffffffffffffffffffffffffffffffff1673ffffffffffffffffffffffffffffffffffffffff166379c6506833846040518363ffffffff167c0100000000000000000000000000000000000000000000000000000000028152600401808373ffffffffffffffffffffffffffffffffffffffff1673ffffffffffffffffffffffffffffffffffffffff16815260200182815260200192505050602060405180830381600087803b158015610f4557600080fd5b505af1158015610f59573d6000803e3d6000fd5b505050506040513d6020811015610f6f57600080fd5b8101908080519060200190929190505050507f4d154d4aae216bed6d0926db77c00df2b57c6b5ba4eee05775de20facede3a7b3383604051808373ffffffffffffffffffffffffffffffffffffffff1673ffffffffffffffffffffffffffffffffffffffff1681526020018281526020019250505060405180910390a15050565b60096020528060005260406000206000915090505481565b600860019054906101000a900473ffffffffffffffffffffffffffffffffffffffff1673ffffffffffffffffffffffffffffffffffffffff163373ffffffffffffffffffffffffffffffffffffffff1614151561106457600080fd5b6000600560006101000a81548160ff021916908315150217905550565b600860009054906101000a900460ff1615151561109d57600080fd5b81600560016101000a81548173ffffffffffffffffffffffffffffffffffffffff021916908373ffffffffffffffffffffffffffffffffffffffff160217905550806002819055506001600860006101000a81548160ff02191690831515021790555050505600a165627a7a72305820553793dca9e303848f1f9d1f64721757d22d65d704cc393a8d3466442e84d0790029",
  "source": "pragma solidity ^0.4.21;\r\n\r\n/*\r\n\r\n  BASIC ERC20 Sale Contract\r\n\r\n  Create this Sale contract first!\r\n\r\n     Sale(address ethwallet)   // this will send the received ETH funds to this address\r\n\r\n\r\n  @author Hunter Long\r\n  @repo https://github.com/hunterlong/ethereum-ico-contract\r\n\r\n*/\r\n\r\n\r\ncontract ERC20 {\r\n  uint public totalSupply;\r\n  function balanceOf(address who) constant returns (uint);\r\n  function allowance(address owner, address spender) constant returns (uint);\r\n  function transfer(address to, uint value) returns (bool ok);\r\n  function transferFrom(address from, address to, uint value) returns (bool ok);\r\n  function approve(address spender, uint value) returns (bool ok);\r\n  function mintToken(address to, uint256 value) returns (uint256);\r\n  function changeTransfer(bool allowed);\r\n}\r\n\r\n\r\ncontract Sale {\r\n\r\n    uint256 public maxMintable;\r\n    uint256 public totalMinted;\r\n    uint public endBlock;\r\n    uint public startBlock;\r\n    uint public exchangeRate;\r\n    bool public isFunding;\r\n    ERC20 public Token;\r\n    address public ETHWallet;\r\n    uint256 public heldTotal;\r\n\r\n    bool private configSet;\r\n    address public creator;\r\n\r\n    mapping (address => uint256) public heldTokens;\r\n    mapping (address => uint) public heldTimeline;\r\n\r\n    event Contribution(address from, uint256 amount);\r\n    event ReleaseTokens(address from, uint256 amount);\r\n\r\n    function Sale(address _wallet) {\r\n        startBlock = block.number;\r\n        maxMintable = 4000000000000000000000000; // 3 million max sellable (18 decimals)\r\n        ETHWallet = _wallet;\r\n        isFunding = true;\r\n        creator = msg.sender;\r\n        createHeldCoins();\r\n        exchangeRate = 600;\r\n    }\r\n\r\n    // setup function to be ran only 1 time\r\n    // setup token address\r\n    // setup end Block number\r\n    function setup(address token_address, uint end_block) {\r\n        require(!configSet);\r\n        Token = ERC20(token_address);\r\n        endBlock = end_block;\r\n        configSet = true;\r\n    }\r\n\r\n    function closeSale() external {\r\n      require(msg.sender==creator);\r\n      isFunding = false;\r\n    }\r\n\r\n    function () payable {\r\n        require(msg.value>0);\r\n        require(isFunding);\r\n        require(block.number <= endBlock);\r\n        uint256 amount = msg.value * exchangeRate;\r\n        uint256 total = totalMinted + amount;\r\n        require(total<=maxMintable);\r\n        totalMinted += total;\r\n        ETHWallet.transfer(msg.value);\r\n        Token.mintToken(msg.sender, amount);\r\n        Contribution(msg.sender, amount);\r\n    }\r\n\r\n    // CONTRIBUTE FUNCTION\r\n    // converts ETH to TOKEN and sends new TOKEN to the sender\r\n    function contribute() external payable {\r\n        require(msg.value>0);\r\n        require(isFunding);\r\n        require(block.number <= endBlock);\r\n        uint256 amount = msg.value * exchangeRate;\r\n        uint256 total = totalMinted + amount;\r\n        require(total<=maxMintable);\r\n        totalMinted += total;\r\n        ETHWallet.transfer(msg.value);\r\n        Token.mintToken(msg.sender, amount);\r\n        Contribution(msg.sender, amount);\r\n    }\r\n\r\n    // update the ETH/COIN rate\r\n    function updateRate(uint256 rate) external {\r\n        require(msg.sender==creator);\r\n        require(isFunding);\r\n        exchangeRate = rate;\r\n    }\r\n\r\n    // change creator address\r\n    function changeCreator(address _creator) external {\r\n        require(msg.sender==creator);\r\n        creator = _creator;\r\n    }\r\n\r\n    // change transfer status for ERC20 token\r\n    function changeTransferStats(bool _allowed) external {\r\n        require(msg.sender==creator);\r\n        Token.changeTransfer(_allowed);\r\n    }\r\n\r\n    // internal function that allocates a specific amount of TOKENS at a specific block number.\r\n    // only ran 1 time on initialization\r\n    function createHeldCoins() internal {\r\n        // TOTAL SUPPLY = 5,000,000\r\n        createHoldToken(msg.sender, 1000);\r\n        createHoldToken(0x4f70Dc5Da5aCf5e71905c3a8473a6D8a7E7Ba4c5, 100000000000000000000000);\r\n        createHoldToken(0x393c82c7Ae55B48775f4eCcd2523450d291f2418, 100000000000000000000000);\r\n    }\r\n\r\n    // public function to get the amount of tokens held for an address\r\n    function getHeldCoin(address _address) public constant returns (uint256) {\r\n        return heldTokens[_address];\r\n    }\r\n\r\n    // function to create held tokens for developer\r\n    function createHoldToken(address _to, uint256 amount) internal {\r\n        heldTokens[_to] = amount;\r\n        heldTimeline[_to] = block.number + 0;\r\n        heldTotal += amount;\r\n        totalMinted += heldTotal;\r\n    }\r\n\r\n    // function to release held tokens for developers\r\n    function releaseHeldCoins() external {\r\n        uint256 held = heldTokens[msg.sender];\r\n        uint heldBlock = heldTimeline[msg.sender];\r\n        require(!isFunding);\r\n        require(held >= 0);\r\n        require(block.number >= heldBlock);\r\n        heldTokens[msg.sender] = 0;\r\n        heldTimeline[msg.sender] = 0;\r\n        Token.mintToken(msg.sender, held);\r\n        ReleaseTokens(msg.sender, held);\r\n    }\r\n\r\n\r\n}\r\n",
  "sourcePath": "c:\\ethereum-ico-contract\\contracts\\Sale.sol",
  "compiler": {
    "name": "solc",
    "version": "0.4.24+commit.e67f0147.Emscripten.clang"
  },
  "schemaVersion": "2.0.1",
  "updatedAt": "2018-10-11T22:32:16.471Z"
}